:020000040800F2
:1000000000000220A11F0008591500085B15000818
:100010005D1500085F15000861150008000000006C
:100020000000000000000000000000006315000850
:100030006515000800000000671500086915000834
:10004000F11F0008F11F0008F11F0008F11F000850
:10005000F11F0008F11F0008F11F0008F11F000840
:10006000F11F0008F11F0008F11F0008F11F000830
:10007000F11F0008F11F0008F11F0008F11F000820
:10008000F11F0008F11F0008F11F00080000000028
:10009000000000000000000000000000F11F000848
:1000A000F11F0008F11F0008F11F0008F11F0008F0
:1000B000F11F0008F11F0008F11F0008F11F0008E0
:1000C000F11F0008F11F0008F11F0008F11F0008D0
:1000D000F11F0008F11F0008F11F000800000000D8
:1000E000F11F0008F11F0008F11F000800000000C8
:1000F000000000000000000000000000F11F0008E8
:1001000000000000F11F0008F11F0008F11F0008A7
:1001100000000000000000000000000000000000DF
:10012000F11F0008F11F0008F11F0008F11F00086F
:10013000F11F0008000000000000000000000000A7
:10014000000000000000000000000000F11F000897
:10015000F11F0008F11F0008F11F0008F11F00083F
:10016000F11F0008F11F000800000000000000005F
:10017000000000000000000000000000000000007F
:1001800000000000F11F0008000000000000000057
:08019000F11F0008F11F000837
:1001A0000348044B834202D0034B03B11847704706
:1001B0007000002070000020000000000548064983
:1001C0000B1AD90F01EBA301491002D0034B03B165
:1001D00018477047700000207000002000000000E9
:1001E00010B5064C237843B9FFF7DAFF044B13B17F
:1001F0000448AFF300800123237010BD700000207D
:1002000000000000F41F000808B5044B1BB10449AE
:100210000448AFF30080BDE80840CFE700000000CD
:1002200074000020F41F0008014B1868704700BFDD
:100230000000002070B50D4E0D4D761BB61006D097
:10024000002455F8043B01349847A642F9D1094EE1
:10025000094D761B01F0CEFEB61006D0002455F8ED
:10026000043B01349847A642F9D170BD70200008C4
:10027000702000087420000870200008830730B543
:1002800048D0541E002A3FD0CAB2034601E0013CC8
:100290003AD303F8012B9D07F9D1032C2DD9CDB208
:1002A00045EA05250F2C45EA054536D9A4F110028B
:1002B00022F00F0C03F1200EE6444FEA121C03F16A
:1002C000100242E9045542E9025510327245F8D154
:1002D0000CF1010214F00C0F03EB021204F00F0CEE
:1002E00013D0ACF1040323F003030433134442F8A6
:1002F000045B9342FBD10CF003042CB1CAB21C4442
:1003000003F8012B9C42FBD130BD64461346002C00
:10031000F4D1F9E703461446BFE71A46A446E0E7DE
:100320000CB410B59CB01EAB6FF00044CDE90614C0
:100330000291084953F8042B059102A901930494F2
:1003400000F008F9029B00221A701CB0BDE81040B2
:1003500002B070470802FFFF0EB410B59DB06FF0F9
:1003600000411FABCDE906010491094953F8042B64
:100370000290084C0868019302A9059400F0EAF87D
:10038000029B00221A701DB0BDE8104003B07047F8
:10039000000000200802FFFF2DE9F0478F689F4210
:1003A0000C461D46164638D88246888910F4906F50
:1003B0000ED108683D462A46314600F0C3FCA268CB
:1003C0002368D21B2B44A26023600020BDE8F08785
:1003D0004B69096903EB4308236808EBD878A3EB62
:1003E00001096B1C4FEA68084B444345424684BFF1
:1003F00098464246430513D51146504600F080FD0D
:10040000074608B321694A4600F002FCA38923F499
:10041000906343F08003A38107E008681F46CAE7A2
:10042000504600F0C7FD074650B107EB0900A8EBA6
:1004300009032761C4F81480A36020602F46BAE73F
:100440002169504600F0FAFC0C23CAF80030A38959
:1004500043F040034FF0FF30A381B7E72DE9F04FA1
:10046000936883B09146002B6ED017688D688046E4
:100470000C460868083744E0A38913F4906F2ED027
:10048000D4E90415A0EB010A05EB450505EBD5758C
:100490000AEB06006D100130A8422A4684BF0546CB
:1004A0002A465B0537D51146404600F029FD002855
:1004B0003BD052462169019000F0AAFBA289019B22
:1004C00022F4906242F08002A281A5EB0A0203EBC3
:1004D0000A006561A260236120603546B246594634
:1004E000524600F02FFCA068D9F808102368451B7D
:1004F0008E1B03EB0A00A5602060C9F808601EB3DC
:10050000083757E902B6002EFAD0B542AA46B3D949
:100510003546B246E3E7404600F04CFD034600286E
:10052000D3D12169404600F089FC0C23C8F8003083
:10053000A389002243F040034FF0FF30A381C9E9B3
:10054000012203B0BDE8F08F0020C9F8040003B019
:10055000BDE8F08F2DE9F04F92468A8915069DB0CF
:10056000884681461C4603D50A69002A00F0EF80C0
:10057000002209929AF800307E4D039420228DF8D3
:10058000292030228DF82A200126002B72D05446D3
:1005900003E014F8013F002B76D0252BF9D1B4EB02
:1005A0000A0B74D12278002A64D000234FF0FF3266
:1005B000CDE90523049307938DF853301A93013442
:1005C00004E0049A06FA03F313430493A2460522B7
:1005D00014F8011B284600F0CBFA431B0028F0D189
:1005E000049BD80644BF20228DF8532019079AF89F
:1005F000001044BF2B228DF853202A2954D1039A8E
:1006000011680432002903927CDB07919AF80110EB
:100610000AF1010A2E2959D0574C0322204600F036
:10062000A7FA40B1049B001B402404FA00F00343E6
:1006300004930AF1010A1AF8011B50488DF828109A
:10064000062200F095FA002862D04D4B002B52D0C4
:1006500003AA00924B4B424604A94846AFF30080E0
:1006600007467A1C06D0099B3B4409939AF8003050
:10067000002B8CD1B8F80C305B0654BF09984FF0B2
:10068000FF301DB0BDE8F08FB4EB0A0BF2D05B4633
:10069000524641464846FFF77FFE0130EAD0099BAB
:1006A00022785B4409937EE7A1F13002092AB1D890
:1006B000079B1AF8011F03EB830302EB4303A1F12D
:1006C0003002092AF5D92E290793A5D19AF80110ED
:1006D0002A2927D1039B9AF802101A68059204333D
:1006E000002A0AF102000393B8BF4FF0FF3382469D
:1006F000B8BF059390E7039B073323F00703083344
:100700000393B0E7494243F00203079104937DE766
:1007100003AA00921B4B424604A9484600F0CAF8BF
:1007200007469EE7A1F130020023092A05930AF14A
:10073000010A3FF671AF1AF8011F03EB830302EBC6
:100740004303A1F13002092AF5D9059364E740215A
:1007500000F0D6FBC8F80000C8F8100018B140221D
:10076000C8F8142004E70C23C9F800304FF0FF301C
:1007700087E700BF2C20000834200008382000083C
:1007800000000000990300082DE9F84F92461F462B
:100790000A698B68DDF828909A42B8BF1A46CAF8F1
:1007A000002091F843300C46064613B10132CAF8D6
:1007B0000020226891065DD5DAF800300233CAF8CD
:1007C0000030226812F0060F11461ED1E168CB1AE4
:1007D000002BD8BF114618DD04F1190B4FF00008AB
:1007E00005E0E568DAF80030ED1A45450CDD012337
:1007F0005A4639463046C847013008F10108F0D161
:100800004FF0FF30BDE8F88F216894F84330003B8B
:1008100018BF01238A060AD5E1185A1C302081F836
:100820004300224494F8451082F84310023304F147
:10083000430239463046C8470130E1D0236803F00F
:100840000603042B1DD0A3682269934225DD4FF0D7
:1008500000089B1A98441A34002501E045451CDA2B
:100860000123224639463046C847013005F10105CB
:10087000F4D1C5E712F0060F12D0003B18BF0123D8
:10088000D5E7DAF80030E1682269C91AA368934213
:1008900021EAE178DDDC0029DDDC0020BDE8F88F0D
:1008A000E168DAF80030CB1A002BD8BF114693DC90
:1008B000ABE700BF2DE9F0470C4684B09046227E9E
:1008C0000C990746994604F14300002A33D0A2F15F
:1008D0005803DDB2202D67D8202B65D8DFE813F050
:1008E000DE0064006400640064006400640064006E
:1008F000640064006400A3006E006400640064008F
:1009000064006E00640064006400640021007F00E5
:10091000C00064006400AE0064007F0064006400F6
:10092000E50023681A0640F104810B6862691D1D09
:100930000D601B681A60002382462361CDF8009089
:10094000434603AA21463846FFF71EFF013020D058
:100950002369524641463846C847013019D02368BA
:10096000E068039E9B0719D5831B002B16DD04F15D
:10097000190A002504E0E068039E831BAB420DDDED
:100980000123524641463846C847013005F101056A
:10099000F1D14FF0FF3004B0BDE8F087B042B8BFEE
:1009A000304604B0BDE8F087012384F8422023617B
:1009B00004F1420A002384F84330BFE723681A0693
:1009C00002D45E0600F1C1800D682A6804350D600E
:1009D0001546002A6BDBDFF884C10A2610E0236885
:1009E0001D0640F19C800B681D1D0D601D68DFF821
:1009F0006CC16F2A0CBF08260A26002384F84330F6
:100A00006268A260002A7FDB236823F0040323606E
:100A1000002D5BD1002A79D18246082E65D0A0EB4B
:100A20000A0020618AE70B680122186804330B6012
:100A300004F1420A84F842002261BBE70B68626855
:100A4000181D0860D3F800A00021504600F090F86F
:100A5000002800F08180A0EB0A0060602061A9E717
:100A6000236843F0200323607822DFF8F4C084F881
:100A700045200A68151D0D601D0643D4590641D551
:100A80001588DE0744BF43F020032360002D44D1C6
:100A9000236823F0200323601026AEE7582384F850
:100AA0004530DFF8B8C02368E3E72368DCE7626815
:100AB000A2602D21002AC5F1000584F8431002DB55
:100AC00023F004032360DFF894C00A268246B5FBB6
:100AD000F6F306FB13512A461CF801100AF8011D13
:100AE000B2421D46F3D2082E99D12368D90796D574
:100AF000626823699A4292DC30230AF8013C0AF1C9
:100B0000FF3A8CE71568BCE7002DDFD19CF8003078
:100B100084F8423004F1420A7FE710266DE713F0B3
:100B2000400F0B6803F104050D600CBF1D681D88A4
:100B30005DE713F0400F0B68626903F104050D6077
:100B40001B6814BF1A801A60F5E60A68B2F90050F3
:100B500004320A602A463CE760687FE740200008CC
:100B60005420000800000000000000000000000009
:100B700001F0FF01102A2BDB10F0070F08D010F84E
:100B8000013B013A8B422DD010F0070F42B3F6D152
:100B9000F0B441EA012141EA014122F007047FF06B
:100BA00000070023F0E80256083C85EA010586EAC2
:100BB000010685FA47F5A3FA87F586FA47F6A5FAFE
:100BC00087F68EB9EED1F0BC01F0FF0102F007020A
:100BD00032B110F8013B013A83EA010313B1F8D1B5
:100BE0000020704701387047002D06BF3546033896
:100BF000073815F0010F07D1013015F4807F02BFCF
:100C0000013015F4C03F0130F0BC0138704700BF1F
:100C1000844641EA000313F003036DD1403A41D307
:100C200051F8043B40F8043B51F8043B40F8043BC6
:100C300051F8043B40F8043B51F8043B40F8043BB6
:100C400051F8043B40F8043B51F8043B40F8043BA6
:100C500051F8043B40F8043B51F8043B40F8043B96
:100C600051F8043B40F8043B51F8043B40F8043B86
:100C700051F8043B40F8043B51F8043B40F8043B76
:100C800051F8043B40F8043B51F8043B40F8043B66
:100C900051F8043B40F8043B51F8043B40F8043B56
:100CA000403ABDD2303211D351F8043B40F8043BF6
:100CB00051F8043B40F8043B51F8043B40F8043B36
:100CC00051F8043B40F8043B103AEDD20C3205D306
:100CD00051F8043B40F8043B043AF9D2043208D0FE
:100CE000D2071CBF11F8013B00F8013B01D30B8870
:100CF00003806046704700BF082A13D38B078DD04E
:100D000010F003038AD0C3F10403D21ADB071CBF1F
:100D100011F8013B00F8013B80D331F8023B20F889
:100D2000023B7BE7043AD9D3013A11F8013B00F8C2
:100D3000013BF9D20B7803704B7843708B7883704A
:100D40006046704788420DD98B1883420AD900EB60
:100D5000020CBAB1624613F801CD02F801CD9942F6
:100D6000F9D170470F2A0ED8034602F1FF3C4AB171
:100D70000CF1010C013B8C4411F8012B03F8012FFD
:100D80006145F9D1704740EA01039B0750D1A2F1B8
:100D9000100370B501F1200C23F00F0501F1100EC6
:100DA00000F11004AC441B095EF8105C44F8105CC0
:100DB0005EF80C5C44F80C5C5EF8085C44F8085C77
:100DC0005EF8045C44F8045C0EF1100EE64504F194
:100DD0001004E9D1013312F00C0F01EB031102F002
:100DE0000F0400EB031327D0043C24F003064FEA62
:100DF000940C1E441C1F8E465EF8045B44F8045F8E
:100E0000B442F9D10CF1010402F0030203EB8403B4
:100E100001EB840102F1FF3C4AB10CF1010C013BF2
:100E20008C4411F8012B03F8012F6145F9D170BDF5
:100E300002F1FF3C03469BE72246EBE7002958D02E
:100E400030B551F8043C83B0002BA1F10404B8BFC5
:100E5000E418019000F0E8F8284A0198136833B1CB
:100E6000A3420DD9216804EB010C63452FD06360C8
:100E7000146003B0BDE8304000F0D8B8A34210D8E9
:100E80001A465B68002BF9D1116802EB010C64452E
:100E900019D02FD36360546003B0BDE8304000F038
:100EA000C5B8116802EB010CA44516D022D8216800
:100EB00004EB010C6345EDD11D685B682944C4E96E
:100EC00000135460D5E7236819441160D1E71D6809
:100ED0005B682944C4E90013CAE724682144541814
:100EE000A3421160C5D1D3E900432144C2E90013F4
:100EF000BFE770470C230360BBE700BF8C000020F6
:100F0000F8B5CD1C25F0030508350C2D38BF0C2590
:100F1000002D064623DBA94221D8254F00F084F896
:100F20003A6822B3144603E063682246FBB11C46CC
:100F300023685B1BF8D40B2B15D8636894420CBF55
:100F40003B605360304600F071F804F10B00231D44
:100F500020F00700C21A01D01B1AA350F8BD0C23C1
:100F600033600020F8BD23601C442560EAE77968FF
:100F7000C9B12946304600F045F8431C0CD0C41CCA
:100F800024F00304A04205D0211A304600F03AF8BC
:100F9000013001D02560D5E70C233046336000F0E6
:100FA00045F80020F8BD304600F02CF87860E0E706
:100FB0008C000020F8B51446F9B1CAB106460D46BA
:100FC00000F036F8A04202D32F463846F8BD21463D
:100FD0003046FFF795FF07460028F6D022462946FF
:100FE000FFF716FE30462946FFF728FF3846F8BDC2
:100FF0002746FFF723FF3846F8BDBDE8F840114605
:10100000FFF77EBF38B5074D0022044608462A6028
:1010100000F0A2FF431C00D038BD2B68002BFBD092
:10102000236038BD94000020704700BF704700BFA8
:1010300051F8040C0028A0F10400BCBF0B58C018E4
:10104000704700BF53B94AB9002908BF00281CBF28
:101050004FF0FF314FF0FF3000F074B9ADF1080CE4
:101060006DE904CE00F006F8DDF804E0DDE90223C6
:1010700004B070472DE9F047089D04468E46002BCA
:101080004DD18A42944669D9B2FA82F252B101FA3C
:1010900002F3C2F1200120FA01F10CFA02FC41EA4C
:1010A000030E94404FEA1C48210CBEFBF8F61FFAD1
:1010B0008CF708FB16E341EA034306FB07F199426C
:1010C0000AD91CEB030306F1FF3080F01F8199421F
:1010D00040F21C81023E63445B1AA4B2B3FBF8F0F9
:1010E00008FB103344EA034400FB07F7A7420AD980
:1010F0001CEB040400F1FF3380F00A81A74240F2A8
:1011000007816444023840EA0640E41B00261DB112
:10111000D4400023C5E900433146BDE8F0878B4247
:1011200009D9002D00F0EF800026C5E90001304606
:101130003146BDE8F087B3FA83F6002E4AD18B42E0
:1011400002D3824200F2F980841A61EB030301208A
:101150009E46002DE0D0C5E9004EDDE702B9FFDE76
:10116000B2FA82F2002A40F09280A1EB0C014FEA21
:101170001C471FFA8CFE0126200CB1FBF7F307FB7E
:10118000131140EA01410EFB03F0884208D91CEB21
:10119000010103F1FF3802D2884200F2CB804346BE
:1011A000091AA4B2B1FBF7F007FB101144EA01449D
:1011B0000EFB00FEA64508D91CEB040400F1FF312C
:1011C00002D2A64500F2BB800846A4EB0E0440EA1A
:1011D00003409CE7C6F12007B34022FA07FC4CEA23
:1011E000030C20FA07F401FA06F31C43F9404FEA16
:1011F0001C4900FA06F3B1FBF9F8200C1FFA8CFE2B
:1012000009FB181140EA014108FB0EF0884202FA7E
:1012100006F20BD91CEB010108F1FF3A80F088803F
:10122000884240F28580A8F102086144091AA4B2FC
:10123000B1FBF9F009FB101144EA014100FB0EFE7D
:101240008E4508D91CEB010100F1FF346CD28E45AC
:101250006AD90238614440EA0840A0FB0294A1EB3D
:101260000E01A142C846A64656D353D05DB1B3EB9A
:10127000080261EB0E0101FA07F722FA06F3F140CA
:101280001F43C5E9007100263146BDE8F087C2F171
:101290002003D8400CFA02FC21FA03F391400143E9
:1012A0004FEA1C471FFA8CFEB3FBF7F007FB103622
:1012B0000B0C43EA064300FB0EF69E4204FA02F4CE
:1012C00008D91CEB030300F1FF382FD29E422DD921
:1012D000023863449B1B89B2B3FBF7F607FB163356
:1012E00041EA034106FB0EF38B4208D91CEB0101D6
:1012F00006F1FF3816D28B4214D9023E6144C91A56
:1013000046EA004638E72E46284605E70646E3E665
:101310001846F8E64B45A9D2B9EB020864EB0C0E6F
:101320000138A3E74646EAE7204694E74046D1E77E
:10133000D0467BE7023B614432E7304609E764442C
:10134000023842E7704700BF70B588B000240394AC
:10135000049405940694079400941D4B1A6B42F074
:1013600080021A631A6B02F080020092009A0194C4
:101370001A6B42F001021A631A6B02F00102019229
:10138000019A02941A6B42F008021A631B6B03F075
:1013900008030293029B0F4D22464FF470412846EA
:1013A00000F0FCFC012603964FF49013049305947F
:1013B00003A9094800F012FC4FF47043039304960C
:1013C0000594069403A9284600F008FC08B070BDF7
:1013D00000380240000C0240000002404FF0604321
:1013E000D3F8803E13F0010F1BD04FF06043D3F8C9
:1013F000003E23FA01F111F0010F12D082B041F248
:10140000883301934FF060431B682BB9019B013B6C
:101410000193002BF6D102E04FF06043187002B048
:101420007047704738B504460D4603E0013429463D
:10143000FFF7D4FF20780028F8D138BD08B5002187
:10144000FFF7F0FF08BD72B6FEE7000000B595B0EB
:101450003022002108A8FEF711FF00230393049314
:1014600005930693079301931F4A116C41F0805135
:101470001164126C02F080520192019A02931B4A8D
:10148000116841F440411160126802F44042029236
:10149000029A0222089201210B9110210C910E92C6
:1014A0000F9308231093C0221192042212921393D7
:1014B00008A800F07DF898B90F2303930223049342
:1014C000002305934FF4A05306934FF480530793E2
:1014D000032103A800F0D2FA20B915B05DF804FB8F
:1014E000FFF7B1FFFFF7AFFF003802400070004088
:1014F00010B586B000F0E6FCFFF7A8FFFFF724FF69
:10150000124B1A68511C1960114901A8FEF724FFFB
:1015100001A8FFF793FF0F4C4FF40051204600F055
:1015200043FC4FF48051204600F03EFC4FF48041D4
:10153000204600F039FC4FF40041204600F034FC16
:101540004FF47A7000F0EAFCDAE700BF9800002060
:101550000C200008000C0240FEE7FEE7FEE7FEE775
:10156000FEE770477047704708B500F0C5FC08BD3E
:1015700000B583B0002100910C4B5A6C42F48042BC
:101580005A645A6C02F480420092009A01911A6CDB
:1015900042F080521A641B6C03F080530193019B4C
:1015A000072000F00BFC03B05DF804FB003802409C
:1015B000002800F0E08170B582B00446036813F0A3
:1015C000010F3BD09F4B9B6803F00C03042B2CD0E6
:1015D0009C4B9B6803F00C03082B21D06368B3F588
:1015E000803F4FD0B3F5A02F52D0964B1A6822F40B
:1015F00080321A601A6822F480221A606368002B15
:1016000050D000F085FC05468E4B1B6813F4003F5C
:1016100014D100F07DFC401B6428F5D90320B1E112
:10162000884B5B6813F4800FD8D0864B1B6813F48B
:10163000003F03D06368002B00F09F81236813F004
:10164000020F54D07F4B9B6813F00C0F3ED07D4BA4
:101650009B6803F00C03082B33D0E368002B68D0A1
:10166000794B01221A6000F053FC0546754B1B684C
:1016700013F0020F54D100F04BFC401B0228F5D9A7
:1016800003207FE16F4A136843F480331360B5E7AA
:101690006C4B1A6842F480221A601A6842F4803255
:1016A0001A60ABE700F034FC0546664B1B6813F488
:1016B000003FC3D000F02CFC401B6428F5D9032068
:1016C00060E1604B5B6813F4800FC6D15D4B1B6813
:1016D00013F0020F03D0E368012B40F05081594A08
:1016E000136823F0F803216943EAC10313602368F8
:1016F00013F0080F42D063696BB3534B0122C3F858
:10170000802E00F005FC05464E4B5B6F13F0020F78
:1017100034D100F0FDFB401B0228F5D9032031E154
:10172000484A136823F0F803216943EAC1031360B0
:10173000DDE7454B00221A6000F0EAFB0546414B0D
:101740001B6813F0020FD2D000F0E2FB401B02280E
:10175000F5D9032016E13C4B0022C3F8802E00F09F
:10176000D7FB0546374B5B6F13F0020F06D000F036
:10177000CFFB401B0228F5D9032003E1236813F0B7
:10178000040F77D02F4B1B6C13F0805F33D10023F5
:1017900001932C4B1A6C42F080521A641B6C03F0BC
:1017A00080530193019B0125284B1B6813F4807F14
:1017B00023D0A368012B34D0052B38D0214B1A6FCE
:1017C00022F001021A671A6F22F004021A67A36856
:1017D000002B3DD000F09CFB06461A4B1B6F13F00C
:1017E000020F46D100F094FB801B41F288339842EF
:1017F000F3D90320C6E00025D6E7144A136843F462
:101800008073136000F084FB0646104B1B6813F4D2
:10181000807FCED100F07CFB801B0228F5D903200D
:10182000B0E0084A136F43F001031367CFE7054B9D
:101830001A6F42F004021A671A6F42F001021A6727
:10184000C5E700BF0038024000004742007000407A
:1018500000F05EFB0646524B1B6F13F0020F08D0E0
:1018600000F056FB801B41F288339842F3D90320E5
:1018700088E0EDB9A369002B00F08380484A9268A4
:1018800002F00C02082A51D0022B17D0454B00223F
:101890001A6600F03DFB0446414B1B6813F0007FC5
:1018A00042D000F035FB001B0228F5D9032069E087
:1018B0003B4A136C23F080531364DBE7394B00225F
:1018C0001A6600F025FB0546354B1B6813F0007FB8
:1018D00006D000F01DFB401B0228F5D9032051E083
:1018E000E369226A1343626A43EA8213A26A5208D6
:1018F000013A43EA0243E26A43EA0263284A536038
:10190000284B01221A6600F003FB0446244B1B6897
:1019100013F0007F06D100F0FBFA001B0228F5D976
:1019200003202FE000202DE000202BE0012B2BD006
:101930001B4B5B6803F48001E269914226D103F0FE
:101940003F02216A8A4223D1616A47F6C0721A4077
:10195000B2EB811F1ED103F44031A26A5208013A52
:10196000B1EB024F18D103F07063E26AB3EB026F80
:1019700014D1002006E001207047012002E0012080
:1019800000E0002002B070BD0120FBE70120F9E774
:101990000120F7E70120F5E70120F3E70120F1E757
:1019A000003802400000474208B5314B9B6803F005
:1019B0000C03042B57D0082B57D12D4B5A6802F03B
:1019C0003F025B6813F4800F2AD0294B5968C1F39A
:1019D000881C4FEA4C11B1EB0C006EEB0E0E4FEA77
:1019E0008E1343EA90638101091A63EB0E03DB0057
:1019F00043EA5173C90011EB0C0C43F10003590287
:101A000000234FEA4C2041EADC51FFF71BFB184B47
:101A10005B68C3F3014301335B00B0FBF3F025E0E7
:101A2000134B5968C1F3881C4FEA4C11B1EB0C0001
:101A30006EEB0E0E4FEA8E1343EA90638101091A92
:101A400063EB0E03DB0043EA5173C90011EB0C0C8E
:101A500043F10003990200234FEA8C2041EA9C5194
:101A6000FFF7F0FAD3E7034800E0034808BD00BFE2
:101A70000038024000127A000024F400002800F030
:101A80009B8070B50D4604464F4B1B6803F007035F
:101A90008B4208D2CBB24C4A1370136803F0070391
:101AA0008B4240F08B80236813F0020F17D013F0A5
:101AB000040F04D0454A936843F4E05393602368CD
:101AC00013F0080F04D0414A936843F460439360D5
:101AD0003E4A936823F0F003A1680B4393602368A8
:101AE00013F0010F32D06368012B21D09A1E012A16
:101AF00025D9364A126812F0020F61D033498A683C
:101B000022F0030213438B6000F002FA06462F4BCB
:101B10009B6803F00C036268B3EB820F16D000F0F1
:101B2000F7F9801B41F288339842F0D9032042E054
:101B3000264A126812F4003FE0D101203BE0234A1C
:101B4000126812F0007FD9D1012034E01E4B1B68CF
:101B500003F00703AB4207D9EAB21B4B1A701B68AC
:101B600003F00703AB422DD1236813F0040F06D016
:101B7000164A936823F4E053E1680B4393602368AB
:101B800013F0080F07D0114A936823F460432169CA
:101B900043EAC1039360FFF707FF0C4B9B68C3F355
:101BA00003130B4AD35CD8400A4B18600A4B1868E1
:101BB00000F062F9002070BD012070470120FAE7B3
:101BC0000120F8E70120F6E7003C0240003802401F
:101BD0001C2000086C0000206800002000230F2B50
:101BE00000F2D28070B582B060E085685E000324A8
:101BF000B44025EA0405CC68B4402C4384604568B1
:101C000025EA02054C68C4F300129A402A43426058
:101C10005AE0DC08083450F8246003F0070295000D
:101C20000F22AA4026EA020E0A69AA4042EA0E02E0
:101C300040F824205CE0042200E0002202FA0EF2C8
:101C40002A430234514D45F82420514A94686FEAE2
:101C50000C0224EA0C054E6816F4801F01D04CEAF1
:101C600004054B4CA560E46802EA04054E6816F4CE
:101C7000001F01D04CEA0405454CE560646802EAA7
:101C800004054E6816F4003F01D04CEA0405404CB0
:101C90006560246822404D6815F4803F01D04CEA0D
:101CA00004023B4C226001330F2B6BD801229A4077
:101CB0000C6804EA020C32EA0404F4D14C6804F023
:101CC0000304013C012C90D94A6802F00302032A64
:101CD00009D0C4685D000322AA4024EA02048A688D
:101CE000AA402243C2604A6802F00302022A90D04E
:101CF00004684FEA430E032202FA0EF224EA0204B9
:101D00004A6802F0030202FA0EF2224302604A68B5
:101D100012F4403FC7D0002201921E4A546C44F492
:101D200080445464526C02F480420192019A9C08EF
:101D3000A51C164A52F8255003F003024FEA820E02
:101D40000F2202FA0EF225EA0205134A90423FF4EE
:101D500074AF02F5806290420ED002F5806290422C
:101D60000CD002F5806290420AD002F58062904267
:101D70003FF461AF072261E701225FE702225DE7DE
:101D800003225BE702B070BD704700BF003801401E
:101D9000003C014000380240000002400AB181616D
:101DA0007047090481617047436901EA030221EA2F
:101DB000030141EA0241816170470000074AD3688C
:101DC00023F4E0631B041B0C000200F4E0600343F7
:101DD00043F0BF6343F40033D360704700ED00E08D
:101DE00000B5194BDB68C3F30223C3F1070CBCF148
:101DF000040F28BF4FF0040C03F1040EBEF1060FD0
:101E000018D9033B4FF0FF3E0EFA0CFC21EA0C01FF
:101E100099400EFA03F322EA0303194300280BDB6F
:101E20000901C9B200F1604000F5614080F800137B
:101E30005DF804FB0023E5E700F00F000901C9B2DB
:101E4000024B1954F4E700BF00ED00E014ED00E090
:101E50000138B0F1807F0BD24FF0E0235861054A82
:101E6000F02182F823100020986107221A61704740
:101E70000120704700ED00E010B504460E4B1878C5
:101E80004FF47A73B3FBF0F30C4A1068B0FBF3F035
:101E9000FFF7DEFF68B90F2C01D901200AE000220C
:101EA00021464FF0FF30FFF79BFF054B1C600020E1
:101EB00000E0012010BD00BF640000206C00002085
:101EC0006800002008B50B4B1A6842F400721A60D3
:101ED0001A6842F480621A601A6842F480721A60CA
:101EE0000320FFF76BFF0020FFF7C6FFFFF740FB63
:101EF000002008BD003C0240034A1168034B1B78D8
:101F00000B441360704700BF9C0000206400002059
:101F1000014B1868704700BF9C00002038B504468C
:101F2000FFF7F6FF0546B4F1FF3F02D0044B1B78E4
:101F30001C44FFF7EDFF401BA042FAD338BD00BFA1
:101F400064000020034AD2F8883043F47003C2F8DA
:101F50008830704700ED00E010B503460C4A0D498B
:101F60000D48006840B10C4800680344521A93427F
:101F700006D8094A136010BD0748084C0460F2E710
:101F8000FEF752F90C2303604FF0FF30F3E700BF78
:101F90000000022000040000A0000020A800002093
:101FA000DFF834D0FFF7CEFF0C480D490D4A00236F
:101FB00002E0D458C4500433C4188C42F9D30A4AFE
:101FC0000A4C002301E013600432A242FBD3FEF767
:101FD00031F9FFF78DFA7047000002200000002061
:101FE000700000207820000870000020A40000206D
:101FF000FEE70000F8B500BFF8BC08BC9E4670477D
:0C200000F8B500BFF8BC08BC9E46704755
:10200C00436F756E746572203D20256C750A0D004A
:10201C00000000000000000001020304060708098C
:10202C00232D302B20000000686C4C006566674542
:10203C004647000030313233343536373839414277
:10204C0043444546000000003031323334353637D6
:0C205C00383961626364656600000000B2
:082068000CF0FF7F01000000F5
:042070000902000859
:04207400E10100087E
:102078000400002000000000000000000000000034
:102088000000000000000000000000000000000048
:102098000000000000000000000000000000000038
:1020A8000000000000000000000000000000000028
:1020B8000000000000000000000000000000000018
:1020C8000000000000000000000000000000000008
:1020D8000000000001000000100000000024F400CF
:0400000508001FA12F
:00000001FF
